:100000000C942A000C943F000C943F000C943F0089
:100010000C943F000C943F000C943F000C943F0064
:100020000C943F000C943F000C943F000C943F0054
:100030000C943F000C943F000C943F000C943F0044
:100040000C943F000C943F000C943F000C943F0034
:100050000C943F0011241FBECFE5D8E0DEBFCDBF1A
:1000600010E0A0E6B0E0E2E5FDE002C005900D92F0
:10007000A438B107D9F70E9400040C94A7060C9489
:100080000000362F272F40E050E0BC01832F922F35
:100090000C949400362F272FBC01832F922F0C94A1
:1000A0006A010F931F93CF93DF93D62FC72F8C0135
:1000B00041E050E0BC018D2F9C2F0E9494008111E3
:1000C00011C040E050E0B8018D2F9C2F0E94EC0041
:1000D000982F81E0911101C080E0DF91CF911F91B5
:1000E0000F91089581E0F9CF362F272F41E050E09E
:1000F000BC01832F922F0C94EC00362F272F40E069
:1001000050E0BC01832F922F0C94EC00362F272F48
:10011000BC01832F922F0C949001362F272FBC0106
:10012000832F922F0C9444019A018230910571F132
:1001300090F4892BC1F481E090E0AC0102C0440F3F
:10014000551F6A95E2F7BA018AB3232B41F0842B3D
:100150008ABB80E00895039761F181E0089560957E
:1001600068236ABBF6CF81E090E0AC0102C0440F87
:10017000551F6A95E2F7BA0187B3232B19F0842B38
:1001800087BBE7CF6095682367BBE3CF81E090E052
:10019000AC0102C0440F551F6A95E2F7BA0184B35F
:1001A000232B19F0842B84BBD4CF6095682364BBC8
:1001B000D0CF81E090E0AC0102C0440F551F6A959A
:1001C000E2F7BA0181B3232B19F0842B81BBC1CF95
:1001D0006095682361BBBDCF9A018230910571F1B2
:1001E00090F4892BC1F481E090E0AC0102C0440F8F
:1001F000551F6A95E2F7BA018BB3232B41F0842B8C
:100200008BBB80E00895039761F181E008956095CC
:1002100068236BBBF6CF81E090E0AC0102C0440FD5
:10022000551F6A95E2F7BA0188B3232B19F0842B86
:1002300088BBE7CF6095682368BBE3CF81E090E09F
:10024000AC0102C0440F551F6A95E2F7BA0185B3AD
:10025000232B19F0842B85BBD4CF6095682365BB15
:10026000D0CF81E090E0AC0102C0440F551F6A95E9
:10027000E2F7BA0182B3232B19F0842B82BBC1CFE2
:100280006095682362BBBDCFFA0182309105F1F021
:10029000B8F4892BC9F42BB381E090E0062E02C09C
:1002A000880F991F0A94E2F730E08223932302C05B
:1002B000959587956A95E2F79183808380E008950C
:1002C000039731F081E0089528B3E6CF25B3E4CF5A
:1002D00022B3E2CFFA0182309105F1F0B8F4892B14
:1002E000C9F429B381E090E0062E02C0880F991F5F
:1002F0000A94E2F730E08223932302C09595879514
:100300006A95E2F79183808380E00895039731F046
:1003100081E0089526B3E6CF23B3E4CF20B3E2CF44
:1003200082309105E1F068F4892B79F48BB321E0F8
:1003300030E001C0220F6A95EAF782278BBB80E08C
:1003400008950397B1F081E0089588B321E030E08B
:1003500001C0220F6A95EAF7822788BBF0CF85B3E8
:1003600021E030E001C0220F6A95EAF7822785BBC1
:10037000E6CF82B321E030E001C0220F6A95EAF7B0
:10038000822782BBDCCF4F925F926F927F928F92D7
:100390009F92AF92BF92CF92DF92EF92FF920F9314
:1003A0001F93CF93DF932B01D82FC92F4A01390117
:1003B0004330510509F480C0C8F44130510559F16A
:1003C0004230510509F451C081E0DF91CF911F9176
:1003D0000F91FF90EF90DF90CF90BF90AF909F90E4
:1003E0008F907F906F905F904F90089544305105AB
:1003F00009F484C04530510539F78D2F20E034E2EF
:1004000044EF50E00E947905A12CB12CE0EACE2EF9
:10041000FFE0DF2E80C08D2F20E034E244EF50E07B
:100420000E947905A12CF8EEBF2EA3E0CA2ED12C94
:10043000E12CF12C00E010E00E94D70569017A015F
:10044000930142E050E081E0C81688E2D8068BE6CE
:10045000E8068EEEF80650F5F301C082D182E28202
:10046000F3829582848280E0B0CF8D2F20E034E249
:1004700044EF50E00E947905A12C00E4B02EEFE19A
:10048000CE2ED12CE12CF12C00E010E00E94D705FB
:1004900069017A01E1E0CE16E8E2DE06EBE6EE065F
:1004A000EEEEFE06C8F2930143E050E0B2018D2F5C
:1004B0009C2F0E94C301D0CF8D2F20E034E244EF67
:1004C00050E00E947905A12CB12C1AEFC12ED12C3D
:1004D000E12CF12C00E010E00E94D70569017A01BF
:1004E000930144E050E0F1E0CF16F8E2DF06FBE6CE
:1004F000EF06FEEEFF0608F4AFCFD8CF8D2F20E039
:1005000034E244EF50E00E947905A12CB12CA8EE12
:10051000CA2EB3E0DB2EE12CF12C00E010E00E94AB
:10052000D70569017A0198CF93B7987F93BF93B7A6
:10053000982B93BF08951F93CF93DF9300D000D0E3
:1005400000D0CDB7DEB79E012F5F3F4F41E050E0B6
:100550000E94C301182F811129C08D819E810E94A4
:10056000940280E090E0DC0149815A816B817C81BA
:1005700084179507A607B70778F080E090E00E94FF
:100580009402812F0F900F900F900F900F900F906B
:10059000DF91CF911F91089508B600FEFDCF28B7D7
:1005A000216028BF0196A11DB11DDECF11E0E9CF6A
:1005B0002F923F92AF92BF92CF92DF92EF92FF9233
:1005C0000F931F93CF93DF9300D000D000D0CDB70F
:1005D000DEB78C016B012D823E82AD81BE815496C7
:1005E0008D919D910D90BC91A02D89839A83AB83B1
:1005F000BC83BC01CD010E947D00AD81BE815896B7
:100600008D919D910D90BC91A02D89839A83AB8390
:10061000BC83BC01CD010E947D00AD81BE815C9692
:100620008D919D910D90BC91A02D89839A83AB8370
:10063000BC83BC01CD010E947D00AD81BE811896B6
:100640008D919D910D90BC91A02D89839A83AB8350
:10065000BC83BC01CD010E947D00AD81BE811C9692
:100660008D919D910D90BC91A02D89839A83AB8330
:10067000BC83BC01CD010E947D00AD81BE8150963E
:100680008D919D910D90BC91A02D89839A83AB8310
:10069000BC83BC01CD010E947D008CE0E82EF12CD2
:1006A000AD80BE80B6E0AB0EB11CED81FE818681CF
:1006B0009781892B09F47BC0AD81BE8158968D91BD
:1006C0009D910D90BC91A02D89839A83AB83BC83AF
:1006D000BC01CD010E948600AD81BE811C968D912A
:1006E0009D910D90BC91A02D89839A83AB83BC838F
:1006F000BC01CD010E94860060E971E080E090E0DD
:100700000E949B02AD81BE8116968D919C91179798
:1007100014962D913C911597822B932B892B71F474
:100720008D919D910D90BC91A02D89839A83AB836F
:10073000BC83A501BC01CD010E944A00B1E0EB1AC7
:10074000F108E114F10409F0B0CFAD81BE815896F3
:100750008D919D910D90BC91A02D89839A83AB833F
:10076000BC83BC01CD010E947D00AD81BE811C9681
:100770008D919D910D90BC91A02D89839A83AB831F
:10078000BC83BC01CD010F900F900F900F900F9084
:100790000F90DF91CF911F910F91FF90EF90DF901D
:1007A000CF90BF90AF903F902F900C947D00D801D8
:1007B0008D919D910D90BC91A02D89839A83AB83DF
:1007C000BC83BC01CD010E948600B2E0CB16D104EF
:1007D00079F4D80114968D919D910D90BC91A02D26
:1007E00089839A83AB83BC83BC01CD010E948600C0
:1007F000ED81FE8186819781892B09F47DCF5CCFC5
:10080000CDB7DEB7AE970FB6F894DEBF0FBECDBF43
:10081000CE01C2969AA389A31E821D828CE0E8E6CF
:10082000F0E0DE01559601900D928A95E1F78CE09B
:10083000E4E7F0E0DE01199601900D928A95E1F768
:100840008091800090918100A0918200B0918300FE
:1008500089839A83AB83BC838D899E89AF89B88D48
:10086000BC01CD010E945100898D9A8DAB8DBC8D4C
:10087000BC01CD010E9451008D8D9E8DAF8DB8A120
:10088000BC01CD010E94510089859A85AB85BC854C
:10089000BC01CD010E9451008D859E85AF85B88930
:1008A000BC01CD010E94510089899A89AB89BC891C
:1008B000BC01CD010E94510089819A81AB81BC812C
:1008C000BC01CD010E94410000E010E0E12CF12CC0
:1008D000CC24C394D12C9CE0A92EB12C99249394C0
:1008E0000F5F1F4F60E971E080E090E00E949B0283
:1008F000C801B5010E946505892BF1F48D819E81A7
:10090000892B09F0A1C0898D9A8DAB8DBC8D8BA3ED
:100910009CA3ADA3BEA3DE0111961D0161E070E0B2
:10092000CE0183960E94D802E12CF12C91E0C926D9
:100930008F8198859E838D838F8198852D813E81BF
:10094000822B932B892B59F489819A81AB81BC81AD
:10095000AE01495F5F4FBC01CD010E944A00C11446
:10096000D10409F446C08D899E89AF89B88DBC0138
:10097000CD010E9474008D8D9E8DAF8DB8A1BC01FC
:10098000CD010E947D00E114F10441F089899A892A
:10099000AB89BC89BC01CD010E9474008F81988510
:1009A000892B09F49DCFC801B5010E946505892BEB
:1009B00009F06AC0898D9A8DAB8DBC8D8BA39CA3E9
:1009C000ADA3BEA38D859E85AF85B8898FA398A75B
:1009D000A9A7BAA7DE0111961D0162E070E0CE0161
:1009E00083960E94D8029D821E821F82188601E093
:1009F00010E08D8D9E8DAF8DB8A1BC01CD010E9400
:100A000074008D899E89AF89B88DBC01CD010E948B
:100A10007D008D819E81892B41F089859A85AB85EA
:100A2000BC85BC01CD010E947400CF80D884C11464
:100A3000D10409F455CF9D821E821F82188601E0E1
:100A400010E0C12CD12C4CCF898D9A8DAB8DBC8DF3
:100A50008BA39CA3ADA3BEA38D859E85AF85B889CE
:100A60008FA398A7A9A7BAA7CE0101961C0162E09F
:100A700070E082960E94D8028D819E81892B09F4B4
:100A800042CFEE24E39451CF8D899E89AF89B88DF2
:100A9000BC01CD010E9474008D8D9E8DAF8DB8A1DB
:100AA000BC01CD010E947D0089899A89AB89BC89EE
:100AB000BC01CD010E9474000F5F1F4F60E971E01F
:100AC00080E090E00E949B026ECF97FB072E16F409
:100AD000009407D077FD09D00E947B0607FC05D063
:100AE0003EF4909581959F4F0895709561957F4F45
:100AF0000895E894DF93CF93FC01DB010E948F06F9
:100B00007F936F93E9019A01AC01BF93AF933F9339
:100B10002F93DF010E948F0626F46C1B7D0B820B46
:100B2000930B9E01EB01FC010E949E06AF91BF91C9
:100B30002F913F910E949E06BE01CF01F9012F9196
:100B40003F91CF91DF910895689401C0E894F92F07
:100B5000F12B12F00C94D805A0E0B0E0E2EBF5E048
:100B60000C944A06092E059422F40E94340611239F
:100B700092F4F0E80F26FFEFE094F09400951095C2
:100B8000B094C094D094A194BF0ACF0ADF0AEF0AB0
:100B9000FF0A0F0B1F0B0E94E30507FC0E9434069F
:100BA000CDB7DEB7ECE00C946606689401C0E8941B
:100BB0008F929F92CF93DF930E94E305DF91CF91B5
:100BC0009F908F90089588249924F401E401B0E463
:100BD0009F93AA279A158B049C04ED05FE05CF056B
:100BE000D007A10798F4AD2FDC2FCF2FFE2FE92DD2
:100BF000982C892E982F872F762F652F542F432FCF
:100C0000322F2227B85031F7BF9127C01B2EBF913A
:100C1000BB27220F331F441F551F661F771F881FD6
:100C2000991F881C991CEE1FFF1FCC1FDD1FAA1FD8
:100C3000BB1F8A149B04EC05FD05CE05DF05A0074C
:100C4000B10748F08A189B08EC09FD09CE09DF09B5
:100C5000A00BB10B21601A94E1F62EF49401AF01C0
:100C6000BE01CD01000C089560957095809590951A
:100C700030954095509521953F4F4F4F5F4F6F4FA7
:100C80007F4F8F4F9F4F08952F923F924F925F92C9
:100C90006F927F928F929F92AF92BF92CF92DF928C
:100CA000EF92FF920F931F93CF93DF93CDB7DEB7F1
:100CB000CA1BDB0B0FB6F894DEBF0FBECDBF099485
:100CC0002A88398848885F846E847D848C849B84DC
:100CD000AA84B984C884DF80EE80FD800C811B81EA
:100CE000AA81B981CE0FD11D0FB6F894DEBF0FBE19
:100CF000CDBFED010895AA1BBB1B51E107C0AA1F80
:100D0000BB1FA617B70710F0A61BB70B881F991FAC
:100D10005A95A9F780959095BC01CD010895A29FA1
:100D2000B001B39FC001A39F700D811D1124911DBF
:100D3000B29F700D811D1124911D08950E948F0690
:100D4000460F571FC81FD91F08F431960895F8940D
:020D5000FFCFD3
:100D52000024F40000000000000000000000010078
:100D62000000020001000000010001000100020079
:040D72000300020078
:00000001FF
