:100000000C942A000C9447000C9447000C94470071
:100010000C9447000C9447000C9447000C94470044
:100020000C9447000C9447000C9447000C94470034
:100030000C9447000C9447000C9447000C94470024
:100040000C9447000C9447000C9447000C94470014
:100050000C94470011241FBECFE5D8E0DEBFCDBF12
:1000600010E0A0E6B0E0EEECFEE002C005900D92DC
:10007000AC38B107D9F720E0ACE8B0E001C01D9280
:10008000A239B207E1F70E941E060C9465070C9492
:100090000000CF93DF9300D000D0CDB7DEB7A0E74C
:1000A000B0E08D919D910D90BC91A02DBC01CD0132
:1000B0000E9497038091740090917500A091760042
:1000C000B0917700BC01CD010E9497038091780028
:1000D00090917900A0917A00B0917B00BC01CD0194
:1000E0000E949703A4E6B0E08D919D910D90BC9184
:1000F000A02DBC01CD010E949703809168009091D2
:100100006900A0916A00B0916B00BC01CD010E9412
:10011000970380916C0090916D00A0916E00B0915A
:100120006F00BC01CD010E94970380916000909107
:100130006100A0916200B091630089839A83AB83D0
:10014000BC83BC01CD010F900F900F900F90DF91F9
:10015000CF910C948703AF92BF92CF92DF92EF9230
:10016000FF920F931F93CF93DF9300D000D000D066
:10017000CDB7DEB7D82EC92E7B018091700090914B
:100180007100A0917200B0917300BC01CD010E947A
:10019000C3038091740090917500A0917600B09196
:1001A0007700BC01CD010E94C3038091780090913B
:1001B0007900A0917A00B0917B00BC01CD010E9432
:1001C000C3038091640090916500A0916600B09196
:1001D0006700BC01CD010E94C3038091680090912B
:1001E0006900A0916A00B0916B00BC01CD010E9432
:1001F000C30380916C0090916D00A0916E00B0914E
:100200006F0089839A83AB83BC83BC01CD010E94BC
:10021000C3030CE010E080918C0090918D00892B3D
:1002200071F4DD82CE82A12CB12CAE14BF040CF48B
:1002300078C080918C0090918D00892BE1F08091A5
:10024000740090917500A0917600B0917700BC0188
:10025000CD010E94CC038091680090916900A0912B
:100260006A00B0916B0089839A83AB83BC83BC0125
:10027000CD010E94CC0360E971E080E090E00E9433
:10028000E10580918C0090918D002091900030913B
:100290009100822B932B892B91F480916000909197
:1002A0006100A0916200B091630089839A83AB835F
:1002B000BC834CE850E0BC01CD010E94900301508A
:1002C00011090115110509F0A6CF809174009091D4
:1002D0007500A0917600B0917700BC01CD010E941D
:1002E000C3038091680090916900A0916A00B09169
:1002F0006B0089839A83AB83BC83BC01CD010F90D3
:100300000F900F900F900F900F90DF91CF911F9152
:100310000F91FF90EF90DF90CF90BF90AF900C9433
:10032000C303ED81FE8181919191A191B191FE83F1
:10033000ED8389839A83AB83BC83BC01CD010E948A
:10034000CC03FFEFAF1ABF0A70CFCF93DF93CDB7C7
:10035000DEB728970FB6F894DEBF0FBECDBF8091F1
:10036000900090919100892BA9F580917400909153
:100370007500A0917600B091770089839A83AB8352
:10038000BC8361E070E0CE0101960E94AB00109248
:100390008F0010928E0081E090E020917E003091DD
:1003A0007F00232B11F080E090E090937F008093FA
:1003B0007E0080918C0090918D00909391008093AD
:1003C000900028960FB6F894DEBF0FBECDBFDF9128
:1003D000CF9108958091740090917500A09176005E
:1003E000B091770089839A83AB83BC838091680046
:1003F00090916900A0916A00B0916B008D839E83FB
:10040000AF83B88762E070E0CE0101960E94AB0036
:1004100081E090E090938F0080938E008091900017
:1004200090919100892B09F0B6CF9FCF0F931F9326
:10043000CF93DF93CDB7DEB72C970FB6F894DEBF1E
:100440000FBECDBF8091700090917100A09172009D
:10045000B0917300BC01CD010E94BA038091780075
:1004600090917900A0917A00B0917B0089879A875A
:10047000AB87BC87BC01CD010E94C30380918E0075
:1004800090918F00892B81F080916C0090916D008C
:10049000A0916E00B0916F0089879A87AB87BC8767
:1004A000BC01CD010E94BA0380918C0090918D0017
:1004B0000CE010E0892B09F042C02C960FB6F8949E
:1004C000DEBF0FBECDBFDF91CF911F910F91089579
:1004D0008091700090917100A0917200B0917300B2
:1004E000BC01CD010E94BA038091780090917900FF
:1004F000A0917A00B0917B00BC01CD010E94C303A2
:1005000080916C0090916D00A0916E00B0916F0091
:1005100089879A87AB87BC87BC01CD010E94BA034B
:1005200080917C0090917D00019690937D00809356
:100530007C0060E971E080E090E00E94E10580913C
:100540007C0090917D00B8010E942306892B09F060
:10055000BFCF8091740090917500A0917600B0910A
:10056000770089839A83AB83BC83809168009091E4
:100570006900A0916A00B0916B008D839E83AF8368
:10058000B88762E070E0CE0101960E94AB00109245
:100590007F0010927E0081E090E090939100809324
:1005A000900090937D0080937C0010928D001092BB
:1005B0008C0083CFCF93DF9300D000D0CDB7DEB7D0
:1005C0008091780090917900A0917A00B0917B00A1
:1005D000BC01CD010E94BA0380917000909171001E
:1005E000A0917200B091730089839A83AB83BC831E
:1005F000BC01CD010E94C3038091900090919100B5
:10060000892B81F08091640090916500A091660033
:10061000B091670089839A83AB83BC83BC01CD0111
:100620000E94BA0380918C0090918D00892B91F0EB
:1006300010927F0010927E0081E090E090939100F4
:100640008093900090937D0080937C0010928D00A9
:1006500010928C000F900F900F900F90DF91CF9120
:100660000895CF93DF9300D000D0CDB7DEB780914F
:100670007C0090917D006CE070E00E942306892B45
:1006800011F40E94A50180918C0090918D00209121
:10069000900030919100822B932B892B91F48091C3
:1006A000600090916100A0916200B0916300898325
:1006B0009A83AB83BC834CE850E0BC01CD010E941F
:1006C000900380917E0090917F00892BB9F40E9465
:1006D000DA0280917C0090917D00019690937D00DC
:1006E00080937C0060E971E080E090E00F900F90D3
:1006F0000F900F90DF91CF910C94E1050E941602AC
:1007000080917E0090917F00892B19F7E0CF362FE2
:10071000272F40E050E0BC01832F922F0C94DA0386
:10072000362F272FBC01832F922F0C94B0040F93E8
:100730001F93CF93DF93D62FC72F8C0141E050E05A
:10074000BC018D2F9C2F0E94DA03811111C040E063
:1007500050E0B8018D2F9C2F0E943204982F81E029
:10076000911101C080E0DF91CF911F910F91089509
:1007700081E0F9CF362F272F41E050E0BC01832FD5
:10078000922F0C943204362F272F40E050E0BC010A
:10079000832F922F0C943204362F272FBC01832FE6
:1007A000922F0C94D604362F272FBC01832F922F23
:1007B0000C948A049A018230910571F190F4892B8E
:1007C000C1F481E090E0AC0102C0440F551F6A956E
:1007D000E2F7BA018AB3232B41F0842B8ABB80E075
:1007E0000895039761F181E00895609568236ABBDD
:1007F000F6CF81E090E0AC0102C0440F551F6A952E
:10080000E2F7BA0187B3232B19F0842B87BBE7CF1C
:100810006095682367BBE3CF81E090E0AC0102C044
:10082000440F551F6A95E2F7BA0184B3232B19F0E0
:10083000842B84BBD4CF6095682364BBD0CF81E088
:1008400090E0AC0102C0440F551F6A95E2F7BA016F
:1008500081B3232B19F0842B81BBC1CF6095682312
:1008600061BBBDCF9A018230910571F190F4892B63
:10087000C1F481E090E0AC0102C0440F551F6A95BD
:10088000E2F7BA018BB3232B41F0842B8BBB80E0C2
:100890000895039761F181E00895609568236BBB2B
:1008A000F6CF81E090E0AC0102C0440F551F6A957D
:1008B000E2F7BA0188B3232B19F0842B88BBE7CF6A
:1008C0006095682368BBE3CF81E090E0AC0102C093
:1008D000440F551F6A95E2F7BA0185B3232B19F02F
:1008E000842B85BBD4CF6095682365BBD0CF81E0D6
:1008F00090E0AC0102C0440F551F6A95E2F7BA01BF
:1009000082B3232B19F0842B82BBC1CF609568235F
:1009100062BBBDCFFA0182309105F1F0B8F4892BAA
:10092000C9F42BB381E090E0062E02C0880F991F16
:100930000A94E2F730E08223932302C095958795CD
:100940006A95E2F79183808380E00895039731F000
:1009500081E0089528B3E6CF25B3E4CF22B3E2CFF8
:10096000FA0182309105F1F0B8F4892BC9F429B36A
:1009700081E090E0062E02C0880F991F0A94E2F7EA
:1009800030E08223932302C0959587956A95E2F71C
:100990009183808380E00895039731F081E008958A
:1009A00026B3E6CF23B3E4CF20B3E2CF8230910564
:1009B000E1F068F4892B79F48BB321E030E001C0D9
:1009C000220F6A95EAF782278BBB80E00895039790
:1009D000B1F081E0089588B321E030E001C0220F3A
:1009E0006A95EAF7822788BBF0CF85B321E030E033
:1009F00001C0220F6A95EAF7822785BBE6CF82B352
:100A000021E030E001C0220F6A95EAF7822782BB1D
:100A1000DCCF4F925F926F927F928F929F92AF92B4
:100A2000BF92CF92DF92EF92FF920F931F93CF93DB
:100A3000DF932B01D82FC92F4A01390143305105CB
:100A400009F480C0C8F44130510559F142305105D4
:100A500009F451C081E0DF91CF911F910F91FF9078
:100A6000EF90DF90CF90BF90AF909F908F907F904E
:100A70006F905F904F9008954430510509F484C001
:100A80004530510539F78D2F20E034E244EF50E036
:100A90000E943706A12CB12CE0EACE2EFFE0DF2E1B
:100AA00080C08D2F20E034E244EF50E00E943706F2
:100AB000A12CF8EEBF2EA3E0CA2ED12CE12CF12CF4
:100AC00000E010E00E94950669017A01930142E07E
:100AD00050E081E0C81688E2D8068BE6E8068EEE84
:100AE000F80650F5F301C082D182E282F38295824A
:100AF000848280E0B0CF8D2F20E034E244EF50E0DC
:100B00000E943706A12C00E4B02EEFE1CE2ED12CAE
:100B1000E12CF12C00E010E00E94950669017A01B9
:100B2000E1E0CE16E8E2DE06EBE6EE06EEEEFE06CD
:100B3000C8F2930143E050E0B2018D2F9C2F0E9438
:100B40000905D0CF8D2F20E034E244EF50E00E9421
:100B50003706A12CB12C1AEFC12ED12CE12CF12C8F
:100B600000E010E00E94950669017A01930144E0DB
:100B700050E0F1E0CF16F8E2DF06FBE6EF06FEEE0E
:100B8000FF0608F4AFCFD8CF8D2F20E034E244EF3A
:100B900050E00E943706A12CB12CA8EECA2EB3E07B
:100BA000DB2EE12CF12C00E010E00E94950669019B
:100BB0007A0198CF93B7987F93BF93B7982B93BF41
:100BC00008951F93CF93DF9300D000D000D0CDB70E
:100BD000DEB79E012F5F3F4F41E050E00E940905C4
:100BE000182F811129C08D819E810E94DA0580E035
:100BF00090E0DC0149815A816B817C8184179507E3
:100C0000A607B70778F080E090E00E94DA05812F10
:100C10000F900F900F900F900F900F90DF91CF914A
:100C20001F91089508B600FEFDCF28B7216028BFA8
:100C30000196A11DB11DDECF11E0E9CF0E94490050
:100C40000E943103FDCF97FB072E16F4009407D0C6
:100C500077FD09D00E94390707FC05D03EF4909536
:100C600081959F4F0895709561957F4F0895E89401
:100C7000DF93CF93FC01DB010E944D077F936F93BD
:100C8000E9019A01AC01BF93AF933F932F93DF012A
:100C90000E944D0726F46C1B7D0B820B930B9E016B
:100CA000EB01FC010E945C07AF91BF912F913F9136
:100CB0000E945C07BE01CF01F9012F913F91CF91B6
:100CC000DF910895689401C0E894F92FF12B12F098
:100CD0000C949606A0E0B0E0E0E7F6E00C9408077C
:100CE000092E059422F40E94F206112392F4F0E8F2
:100CF0000F26FFEFE094F09400951095B094C09407
:100D0000D094A194BF0ACF0ADF0AEF0AFF0A0F0BA3
:100D10001F0B0E94A10607FC0E94F206CDB7DEB7AA
:100D2000ECE00C942407689401C0E8948F929F92A1
:100D3000CF93DF930E94A106DF91CF919F908F9078
:100D4000089588249924F401E401B0E49F93AA272C
:100D50009A158B049C04ED05FE05CF05D007A1076D
:100D600098F4AD2FDC2FCF2FFE2FE92D982C892E54
:100D7000982F872F762F652F542F432F322F22271E
:100D8000B85031F7BF9127C01B2EBF91BB27220F50
:100D9000331F441F551F661F771F881F991F881C0C
:100DA000991CEE1FFF1FCC1FDD1FAA1FBB1F8A143B
:100DB0009B04EC05FD05CE05DF05A007B10748F053
:100DC0008A189B08EC09FD09CE09DF09A00BB10BBD
:100DD00021601A94E1F62EF49401AF01BE01CD0119
:100DE000000C08956095709580959095309540958C
:100DF000509521953F4F4F4F5F4F6F4F7F4F8F4F14
:100E00009F4F08952F923F924F925F926F927F92E1
:100E10008F929F92AF92BF92CF92DF92EF92FF920A
:100E20000F931F93CF93DF93CDB7DEB7CA1BDB0BB6
:100E30000FB6F894DEBF0FBECDBF09942A8839885B
:100E400048885F846E847D848C849B84AA84B98462
:100E5000C884DF80EE80FD800C811B81AA81B9816E
:100E6000CE0FD11D0FB6F894DEBF0FBECDBFED0182
:100E70000895AA1BBB1B51E107C0AA1FBB1FA617E1
:100E8000B70710F0A61BB70B881F991F5A95A9F733
:100E900080959095BC01CD010895A29FB001B39FAC
:100EA000C001A39F700D811D1124911DB29F700D73
:100EB000811D1124911D08950E944D07460F571F53
:0E0EC000C81FD91F08F431960895F894FFCF8B
:100ECE000300020001000000010001000100020009
:100EDE0000000000000001000000020001000100FF
:0C0EEE00900105000024F400000000004A
:00000001FF
