:100000000C942A000C943F000C943F000C943F0089
:100010000C943F000C943F000C943F000C943F0064
:100020000C943F000C943F000C943F000C943F0054
:100030000C943F000C943F000C943F000C943F0044
:100040000C943F000C943F000C943F000C943F0034
:100050000C943F0011241FBECFE5D8E0DEBFCDBF1A
:1000600010E0A0E6B0E0E2E2F8E002C005900D92F8
:10007000A836B107D9F70E9485020C940F040C949E
:1000800000009A018230910571F190F4892BC1F43E
:1000900081E090E0AC0102C0440F551F6A95E2F781
:1000A000BA018AB3232B41F0842B8ABB80E00895E8
:1000B000039761F181E00895609568236ABBF6CFEC
:1000C00081E090E0AC0102C0440F551F6A95E2F751
:1000D000BA0187B3232B19F0842B87BBE7CF609538
:1000E000682367BBE3CF81E090E0AC0102C0440F1E
:1000F000551F6A95E2F7BA0184B3232B19F0842BBC
:1001000084BBD4CF6095682364BBD0CF81E090E0FE
:10011000AC0102C0440F551F6A95E2F7BA0181B3E2
:10012000232B19F0842B81BBC1CF6095682361BB61
:10013000BDCF9A018230910571F190F4892BC1F401
:1001400081E090E0AC0102C0440F551F6A95E2F7D0
:10015000BA018BB3232B41F0842B8BBB80E0089535
:10016000039761F181E00895609568236BBBF6CF3A
:1001700081E090E0AC0102C0440F551F6A95E2F7A0
:10018000BA0188B3232B19F0842B88BBE7CF609585
:10019000682368BBE3CF81E090E0AC0102C0440F6C
:1001A000551F6A95E2F7BA0185B3232B19F0842B0A
:1001B00085BBD4CF6095682365BBD0CF81E090E04C
:1001C000AC0102C0440F551F6A95E2F7BA0182B331
:1001D000232B19F0842B82BBC1CF6095682362BBAF
:1001E000BDCFFA0182309105F1F0B8F4892BC9F442
:1001F0002BB381E090E0062E02C0880F991F0A946D
:10020000E2F730E08223932302C0959587956A95A3
:10021000E2F79183808380E00895039731F081E0D5
:10022000089528B3E6CF25B3E4CF22B3E2CFFA0195
:1002300082309105F1F0B8F4892BC9F429B381E03B
:1002400090E0062E02C0880F991F0A94E2F730E072
:100250008223932302C0959587956A95E2F791834F
:10026000808380E00895039731F081E0089526B3FC
:10027000E6CF23B3E4CF20B3E2CF82309105E1F0A3
:1002800068F4892B79F48BB321E030E001C0220FB0
:100290006A95EAF782278BBB80E008950397B1F057
:1002A00081E0089588B321E030E001C0220F6A9513
:1002B000EAF7822788BBF0CF85B321E030E001C0A8
:1002C000220F6A95EAF7822785BBE6CF82B321E049
:1002D00030E001C0220F6A95EAF7822782BBDCCFAB
:1002E0004F925F926F927F928F929F92AF92BF9246
:1002F000CF92DF92EF92FF920F931F93CF93DF93F2
:100300002B01D82FC92F4A0139014330510509F477
:1003100080C0C8F44130510559F14230510509F40B
:1003200051C081E0DF91CF911F910F91FF90EF902D
:10033000DF90CF90BF90AF909F908F907F906F9005
:100340005F904F9008954430510509F484C04530C2
:10035000510539F78D2F20E034E244EF50E00E9440
:10036000F502A12CB12CE0EACE2EFFE0DF2E80C0FA
:100370008D2F20E034E244EF50E00E94F502A12CE2
:10038000F8EEBF2EA3E0CA2ED12CE12CF12C00E018
:1003900010E00E94530369017A01930142E050E0AA
:1003A00081E0C81688E2D8068BE6E8068EEEF806ED
:1003B00050F5F301C082D182E282F3829582848279
:1003C00080E0B0CF8D2F20E034E244EF50E00E9477
:1003D000F502A12C00E4B02EEFE1CE2ED12CE12CC1
:1003E000F12C00E010E00E94530369017A01E1E082
:1003F000CE16E8E2DE06EBE6EE06EEEEFE06C8F20C
:10040000930143E050E0B2018D2F9C2F0E947001B8
:10041000D0CF8D2F20E034E244EF50E00E94F5026F
:10042000A12CB12C1AEFC12ED12CE12CF12C00E023
:1004300010E00E94530369017A01930144E050E007
:10044000F1E0CF16F8E2DF06FBE6EF06FEEEFF0670
:1004500008F4AFCFD8CF8D2F20E034E244EF50E046
:100460000E94F502A12CB12CA8EECA2EB3E0DB2E1F
:10047000E12CF12C00E010E00E94530369017A01A5
:1004800098CF93B7987F93BF93B7982B93BF089556
:100490001F93CF93DF9300D000D000D0CDB7DEB74D
:1004A0009E012F5F3F4F41E050E00E947001182FE6
:1004B000811129C08D819E810E94410280E090E0DF
:1004C000DC0149815A816B817C8184179507A607DD
:1004D000B70778F080E090E00E944102812F0F90F2
:1004E0000F900F900F900F900F90DF91CF911F9171
:1004F000089508B600FEFDCF28B7216028BF0196F9
:10050000A11DB11DDECF11E0E9CF00D000D0CDB7E5
:10051000DEB741E050E060E070E082E090E00E94F1
:10052000410040E050E061E070E082E090E00E9435
:10053000410041E050E060E070E082E090E00E9425
:10054000990068EE73E080E090E00E94480240E08D
:1005500050E060E070E082E090E00E9499001C8230
:100560001B821A821982AE014D5F5F4F61E070E01D
:1005700082E090E00E9417018B819C81892B99F386
:10058000AE014F5F5F4F60E070E082E090E00E945C
:10059000F10089819A81892BD9F441E050E060E033
:1005A00070E082E090E00E94990064EF71E080E0EA
:1005B00090E00E94480260E070E082E090E00E94DB
:1005C0003D0164EF71E080E090E00E944802CBCFF3
:1005D00040E050E060E070E082E090E00E9499002E
:1005E00089819A81892B09F7D8CFE894DF93CF933B
:1005F000FC01DB010E94F7037F936F93E9019A01ED
:10060000AC01BF93AF933F932F93DF010E94F70399
:1006100026F46C1B7D0B820B930B9E01EB01FC01FE
:100620000E940604AF91BF912F913F910E94060452
:10063000BE01CF01F9012F913F91CF91DF91089534
:10064000689401C0E894F92FF12B12F00C94540334
:10065000A0E0B0E0EEE2F3E00C94C603092E0594AE
:1006600022F40E94B003112392F4F0E80F26FFEF6A
:10067000E094F09400951095B094C094D094A19417
:10068000BF0ACF0ADF0AEF0AFF0A0F0B1F0B0E94F7
:100690005F0307FC0E94B003CDB7DEB7ECE00C941B
:1006A000E203689401C0E8948F929F92CF93DF9306
:1006B0000E945F03DF91CF919F908F9008958824CF
:1006C0009924F401E401B0E49F93AA279A158B04BE
:1006D0009C04ED05FE05CF05D007A10798F4AD2FCA
:1006E000DC2FCF2FFE2FE92D982C892E982F872FC6
:1006F000762F652F542F432F322F2227B85031F7F2
:10070000BF9127C01B2EBF91BB27220F331F441F51
:10071000551F661F771F881F991F881C991CEE1F85
:10072000FF1FCC1FDD1FAA1FBB1F8A149B04EC05F3
:10073000FD05CE05DF05A007B10748F08A189B0824
:10074000EC09FD09CE09DF09A00BB10B21601A9459
:10075000E1F62EF49401AF01BE01CD01000C089525
:100760006095709580959095309540955095219520
:100770003F4F4F4F5F4F6F4F7F4F8F4F9F4F0895AA
:100780002F923F924F925F926F927F928F929F92A1
:10079000AF92BF92CF92DF92EF92FF920F931F938F
:1007A000CF93DF93CDB7DEB7CA1BDB0B0FB6F89440
:1007B000DEBF0FBECDBF09942A88398848885F8480
:1007C0006E847D848C849B84AA84B984C884DF80F1
:1007D000EE80FD800C811B81AA81B981CE0FD11DD5
:1007E0000FB6F894DEBF0FBECDBFED010895A29FF6
:1007F000B001B39FC001A39F700D811D1124911DF5
:10080000B29F700D811D1124911D08950E94F70360
:10081000460F571FC81FD91F08F431960895F89442
:02082000FFCF08
:080822000024F40000000000B6
:00000001FF
