:100000000C942A000C943F000C943F000C943F0089
:100010000C943F000C943F000C943F000C943F0064
:100020000C943F000C943F000C943F000C943F0054
:100030000C943F000C943F000C943F000C943F0044
:100040000C943F000C943F000C943F000C943F0034
:100050000C943F0011241FBECFE5D8E0DEBFCDBF1A
:1000600010E0A0E6B0E0EAE0F9E002C005900D92F1
:10007000A836B107D9F70E94C8020C9483040C94E7
:1000800000000F931F93CF93DF93D62FC72F8C01C0
:1000900041E050E0BC018D2F9C2F0E948400811113
:1000A00011C040E050E0B8018D2F9C2F0E94DC0071
:1000B000982F81E0911101C080E0DF91CF911F91D5
:1000C0000F91089581E0F9CF362F272F41E050E0BE
:1000D000BC01832F922F0C94DC00362F272F40E099
:1000E00050E0BC01832F922F0C94DC00362F272F79
:1000F000BC01832F922F0C948001362F272FBC0137
:10010000832F922F0C9434019A018230910571F162
:1001100090F4892BC1F481E090E0AC0102C0440F5F
:10012000551F6A95E2F7BA018AB3232B41F0842B5D
:100130008ABB80E00895039761F181E0089560959E
:1001400068236ABBF6CF81E090E0AC0102C0440FA7
:10015000551F6A95E2F7BA0187B3232B19F0842B58
:1001600087BBE7CF6095682367BBE3CF81E090E072
:10017000AC0102C0440F551F6A95E2F7BA0184B37F
:10018000232B19F0842B84BBD4CF6095682364BBE8
:10019000D0CF81E090E0AC0102C0440F551F6A95BA
:1001A000E2F7BA0181B3232B19F0842B81BBC1CFB5
:1001B0006095682361BBBDCF9A018230910571F1D2
:1001C00090F4892BC1F481E090E0AC0102C0440FAF
:1001D000551F6A95E2F7BA018BB3232B41F0842BAC
:1001E0008BBB80E00895039761F181E008956095ED
:1001F00068236BBBF6CF81E090E0AC0102C0440FF6
:10020000551F6A95E2F7BA0188B3232B19F0842BA6
:1002100088BBE7CF6095682368BBE3CF81E090E0BF
:10022000AC0102C0440F551F6A95E2F7BA0185B3CD
:10023000232B19F0842B85BBD4CF6095682365BB35
:10024000D0CF81E090E0AC0102C0440F551F6A9509
:10025000E2F7BA0182B3232B19F0842B82BBC1CF02
:100260006095682362BBBDCFFA0182309105F1F041
:10027000B8F4892BC9F42BB381E090E0062E02C0BC
:10028000880F991F0A94E2F730E08223932302C07B
:10029000959587956A95E2F79183808380E008952C
:1002A000039731F081E0089528B3E6CF25B3E4CF7A
:1002B00022B3E2CFFA0182309105F1F0B8F4892B34
:1002C000C9F429B381E090E0062E02C0880F991F7F
:1002D0000A94E2F730E08223932302C09595879534
:1002E0006A95E2F79183808380E00895039731F067
:1002F00081E0089526B3E6CF23B3E4CF20B3E2CF65
:1003000082309105E1F068F4892B79F48BB321E018
:1003100030E001C0220F6A95EAF782278BBB80E0AC
:1003200008950397B1F081E0089588B321E030E0AB
:1003300001C0220F6A95EAF7822788BBF0CF85B308
:1003400021E030E001C0220F6A95EAF7822785BBE1
:10035000E6CF82B321E030E001C0220F6A95EAF7D0
:10036000822782BBDCCF4F925F926F927F928F92F7
:100370009F92AF92BF92CF92DF92EF92FF920F9334
:100380001F93CF93DF932B01D82FC92F4A01390137
:100390004330510509F480C0C8F44130510559F18A
:1003A0004230510509F451C081E0DF91CF911F9196
:1003B0000F91FF90EF90DF90CF90BF90AF909F9004
:1003C0008F907F906F905F904F90089544305105CB
:1003D00009F484C04530510539F78D2F20E034E20F
:1003E00044EF50E00E946903A12CB12CE0EACE2E2C
:1003F000FFE0DF2E80C08D2F20E034E244EF50E09C
:100400000E946903A12CF8EEBF2EA3E0CA2ED12CC6
:10041000E12CF12C00E010E00E94C70369017A0191
:10042000930142E050E081E0C81688E2D8068BE6EE
:10043000E8068EEEF80650F5F301C082D182E28222
:10044000F3829582848280E0B0CF8D2F20E034E269
:1004500044EF50E00E946903A12C00E4B02EEFE1CC
:10046000CE2ED12CE12CF12C00E010E00E94C7032D
:1004700069017A01E1E0CE16E8E2DE06EBE6EE067F
:10048000EEEEFE06C8F2930143E050E0B2018D2F7C
:100490009C2F0E94B301D0CF8D2F20E034E244EF97
:1004A00050E00E946903A12CB12C1AEFC12ED12C6F
:1004B000E12CF12C00E010E00E94C70369017A01F1
:1004C000930144E050E0F1E0CF16F8E2DF06FBE6EE
:1004D000EF06FEEEFF0608F4AFCFD8CF8D2F20E059
:1004E00034E244EF50E00E946903A12CB12CA8EE45
:1004F000CA2EB3E0DB2EE12CF12C00E010E00E94CC
:10050000C70369017A0198CF93B7987F93BF93B7D8
:10051000982B93BF08951F93CF93DF9300D000D003
:1005200000D0CDB7DEB79E012F5F3F4F41E050E0D6
:100530000E94B301182F811129C08D819E810E94D4
:10054000840280E090E0DC0149815A816B817C81EA
:1005500084179507A607B70778F080E090E00E941F
:100560008402812F0F900F900F900F900F900F909B
:10057000DF91CF911F91089508B600FEFDCF28B7F7
:10058000216028BF0196A11DB11DDECF11E0E9CF8A
:1005900000D0CDB7DEB71A82198262E070E080E049
:1005A00090E00E94410062E070E080E090E00E94F4
:1005B000640068EE73E080E090E00E948B0262E0ED
:1005C00070E080E090E00E946D0068EE73E080E0F3
:1005D00090E00E948B0208E010E062E070E080E0B2
:1005E00090E00E9476006AEF70E080E090E00E9468
:1005F0008B0262E070E080E090E00E9476006AEF9B
:1006000070E080E090E00E948B020150110901151A
:10061000110519F702E010E062E070E080E090E080
:100620000E94760064EF71E080E090E00E948B020F
:1006300062E070E080E090E00E94760064EF71E09C
:1006400080E090E00E948B02AE014F5F5F4F62E05E
:1006500070E080E090E00E947D0089819A81892B82
:1006600011F562E070E080E090E00E94640064EFC9
:1006700071E080E090E00E948B0289819A81892B51
:10068000E9F462E070E080E090E00E94640064EFD2
:1006900071E080E090E00E948B020130110509F4C6
:1006A0009ACF01E0B8CF62E070E080E090E00E9475
:1006B0006D0089819A81892BD1F6D3CF62E070E0F9
:1006C00080E090E00E946D0089819A81892BF9F683
:1006D000D8CFE894DF93CF93FC01DB010E946B0439
:1006E0007F936F93E9019A01AC01BF93AF933F935E
:1006F0002F93DF010E946B0426F46C1B7D0B820B91
:10070000930B9E01EB01FC010E947A04AF91BF9113
:100710002F913F910E947A04BE01CF01F9012F91E0
:100720003F91CF91DF910895689401C0E894F92F2B
:10073000F12B12F00C94C803A0E0B0E0E2EAF3E081
:100740000C943A04092E059422F40E9424041123E7
:1007500092F4F0E80F26FFEFE094F09400951095E6
:10076000B094C094D094A194BF0ACF0ADF0AEF0AD4
:10077000FF0A0F0B1F0B0E94D30307FC0E942404E7
:10078000CDB7DEB7ECE00C945604689401C0E89451
:100790008F929F92CF93DF930E94D303DF91CF91EB
:1007A0009F908F90089588249924F401E401B0E487
:1007B0009F93AA279A158B049C04ED05FE05CF058F
:1007C000D007A10798F4AD2FDC2FCF2FFE2FE92DF6
:1007D000982C892E982F872F762F652F542F432FF3
:1007E000322F2227B85031F7BF9127C01B2EBF915F
:1007F000BB27220F331F441F551F661F771F881FFB
:10080000991F881C991CEE1FFF1FCC1FDD1FAA1FFC
:10081000BB1F8A149B04EC05FD05CE05DF05A00770
:10082000B10748F08A189B08EC09FD09CE09DF09D9
:10083000A00BB10B21601A94E1F62EF49401AF01E4
:10084000BE01CD01000C089560957095809590953E
:1008500030954095509521953F4F4F4F5F4F6F4FCB
:100860007F4F8F4F9F4F08952F923F924F925F92ED
:100870006F927F928F929F92AF92BF92CF92DF92B0
:10088000EF92FF920F931F93CF93DF93CDB7DEB715
:10089000CA1BDB0B0FB6F894DEBF0FBECDBF0994A9
:1008A0002A88398848885F846E847D848C849B8400
:1008B000AA84B984C884DF80EE80FD800C811B810E
:1008C000AA81B981CE0FD11D0FB6F894DEBF0FBE3D
:1008D000CDBFED010895A29FB001B39FC001A39FBA
:1008E000700D811D1124911DB29F700D811D112469
:1008F000911D08950E946B04460F571FC81FD91FF2
:0A09000008F431960895F894FFCF33
:08090A000024F40000000000CD
:00000001FF
